{
  "abi": [
    {
      "anonymous": false,
      "inputs": [
        {
          "indexed": false,
          "internalType": "address",
          "name": "token",
          "type": "address"
        },
        {
          "indexed": false,
          "internalType": "uint256",
          "name": "repayAmount",
          "type": "uint256"
        }
      ],
      "name": "FlashLoan",
      "type": "event"
    },
    {
      "payable": true,
      "stateMutability": "payable",
      "type": "fallback"
    },
    {
      "constant": false,
      "inputs": [
        {
          "internalType": "address",
          "name": "sender",
          "type": "address"
        },
        {
          "components": [
            {
              "internalType": "address",
              "name": "owner",
              "type": "address"
            },
            {
              "internalType": "uint256",
              "name": "number",
              "type": "uint256"
            }
          ],
          "internalType": "struct Account.Info",
          "name": "account",
          "type": "tuple"
        },
        {
          "internalType": "bytes",
          "name": "data",
          "type": "bytes"
        }
      ],
      "name": "callFunction",
      "outputs": [],
      "payable": false,
      "stateMutability": "nonpayable",
      "type": "function"
    },
    {
      "constant": false,
      "inputs": [
        {
          "internalType": "address",
          "name": "_solo",
          "type": "address"
        },
        {
          "internalType": "address",
          "name": "_token",
          "type": "address"
        },
        {
          "internalType": "uint256",
          "name": "_amount",
          "type": "uint256"
        }
      ],
      "name": "initiateFlashLoan",
      "outputs": [],
      "payable": false,
      "stateMutability": "nonpayable",
      "type": "function"
    }
  ],
  "bytecode": "608060405234801561001057600080fd5b50610ebc806100206000396000f3fe6080604052600436106100295760003560e01c80638b4187131461002b578063f48401231461004b575b005b34801561003757600080fd5b506100296100463660046108af565b61006b565b34801561005757600080fd5b50610029610066366004610862565b610180565b61007361069d565b818060200190516100879190810190610928565b9050600081600001516001600160a01b03166370a08231306040518263ffffffff1660e01b81526004016100bb9190610c9f565b60206040518083038186803b1580156100d357600080fd5b505afa1580156100e7573d6000803e3d6000fd5b505050506040513d601f19601f8201168201806040525061010b9190810190610946565b9050816020015181101561013a5760405162461bcd60e51b815260040161013190610cfd565b60405180910390fd5b815160208301516040517f134bde118562a60dcf2d8c52965f586e25cf88a371592e44b78c4aa03bcbac8492610171929091610cad565b60405180910390a15050505050565b82600061018d82856103b2565b9050600061019a84610503565b60405163095ea7b360e01b81529091506001600160a01b0386169063095ea7b3906101cb9089908590600401610cad565b602060405180830381600087803b1580156101e557600080fd5b505af11580156101f9573d6000803e3d6000fd5b505050506040513d601f19601f8201168201806040525061021d919081019061090a565b5060408051600380825260808201909252606091816020015b61023e6106b4565b81526020019060019003908161023657905050905061025d838661051e565b8160008151811061026a57fe5b60200260200101819052506102ba6040518060400160405280886001600160a01b03168152602001848152506040516020016102a69190610d1d565b6040516020818303038152906040526105a8565b816001815181106102c757fe5b60200260200101819052506102dc8383610616565b816002815181106102e957fe5b6020908102919091010152604080516001808252818301909252606091816020015b61031361069d565b81526020019060019003908161030b579050509050610330610651565b8160008151811061033d57fe5b602090810291909101015260405163a67a6a4560e01b81526001600160a01b0386169063a67a6a45906103769084908690600401610cc8565b600060405180830381600087803b15801561039057600080fd5b505af11580156103a4573d6000803e3d6000fd5b505050505050505050505050565b6000808390506000816001600160a01b031663295c39a56040518163ffffffff1660e01b815260040160206040518083038186803b1580156103f357600080fd5b505afa158015610407573d6000803e3d6000fd5b505050506040513d601f19601f8201168201806040525061042b9190810190610946565b90506000805b828110156104e45760405163062bd3e960e01b81526001600160a01b0385169063062bd3e990610465908490600401610d2b565b60206040518083038186803b15801561047d57600080fd5b505afa158015610491573d6000803e3d6000fd5b505050506040513d601f19601f820116820180604052506104b5919081019061083c565b9150856001600160a01b0316826001600160a01b031614156104dc5793506104fd92505050565b600101610431565b5060405162461bcd60e51b815260040161013190610d0d565b92915050565b600061051682600263ffffffff61067116565b90505b919050565b6105266106b4565b604080516101008101825260018152600060208083018290528351608081018552828152929384019291908201905b81526020016000815260200185815250815260200184815260200160008152602001306001600160a01b031681526020016000815260200160405180602001604052806000815250815250905092915050565b6105b06106b4565b6040805161010081018252600881526000602080830182905283516080810185528281529293840192919082019081526020016000815260006020918201819052918352820181905260408201819052306060830152608082015260a001929092525090565b61061e6106b4565b60408051610100810182526000808252602080830182905283516080810185526001815292938401929190820190610555565b61065961069d565b50604080518082019091523081526001602082015290565b6000828201838110156106965760405162461bcd60e51b815260040161013190610ced565b9392505050565b604080518082019091526000808252602082015290565b6040805161010081018252600080825260208201529081016106d4610706565b8152602001600081526020016000815260200160006001600160a01b0316815260200160008152602001606081525090565b604080516080810190915260008082526020820190815260200160008152602001600081525090565b80356104fd81610e53565b80516104fd81610e53565b80516104fd81610e67565b600082601f83011261076157600080fd5b813561077461076f82610d60565b610d39565b9150808252602083016020830185838301111561079057600080fd5b61079b838284610dfa565b50505092915050565b6000604082840312156107b657600080fd5b6107c06040610d39565b905060006107ce848461072f565b82525060206107df84848301610826565b60208301525092915050565b6000604082840312156107fd57600080fd5b6108076040610d39565b90506000610815848461073a565b82525060206107df84848301610831565b80356104fd81610e70565b80516104fd81610e70565b60006020828403121561084e57600080fd5b600061085a848461073a565b949350505050565b60008060006060848603121561087757600080fd5b6000610883868661072f565b93505060206108948682870161072f565b92505060406108a586828701610826565b9150509250925092565b6000806000608084860312156108c457600080fd5b60006108d0868661072f565b93505060206108e1868287016107a4565b925050606084013567ffffffffffffffff8111156108fe57600080fd5b6108a586828701610750565b60006020828403121561091c57600080fd5b600061085a8484610745565b60006040828403121561093a57600080fd5b600061085a84846107eb565b60006020828403121561095857600080fd5b600061085a8484610831565b60006106968383610b7b565b600061097c8383610c76565b505060400190565b61098d81610dce565b82525050565b61098d81610d9b565b60006109a782610d8e565b6109b18185610d92565b9350836020820285016109c385610d88565b8060005b858110156109fd57848403895281516109e08582610964565b94506109eb83610d88565b60209a909a01999250506001016109c7565b5091979650505050505050565b6000610a1582610d8e565b610a1f8185610d92565b9350610a2a83610d88565b8060005b83811015610a58578151610a428882610970565b9750610a4d83610d88565b925050600101610a2e565b509495945050505050565b61098d81610da6565b6000610a7782610d8e565b610a818185610d92565b9350610a91818560208601610e06565b610a9a81610e32565b9093019392505050565b61098d81610dd9565b61098d81610de4565b6000610ac3601b83610d92565b7f536166654d6174683a206164646974696f6e206f766572666c6f770000000000815260200192915050565b6000610afc602483610d92565b7f4e6f7420656e6f7567682066756e647320746f2072657061792064796478206c8152636f616e2160e01b602082015260400192915050565b6000610b42602483610d92565b7f4e6f206d61726b6574496420666f756e6420666f722070726f7669646564207481526337b5b2b760e11b602082015260400192915050565b8051600090610160840190610b908582610aa4565b506020830151610ba36020860182610c96565b506040830151610bb66040860182610c26565b506060830151610bc960c0860182610c96565b506080830151610bdc60e0860182610c96565b5060a0830151610bf0610100860182610993565b5060c0830151610c04610120860182610c96565b5060e0830151848203610140860152610c1d8282610a6c565b95945050505050565b80516080830190610c378482610a63565b506020820151610c4a6020850182610aad565b506040820151610c5d6040850182610aad565b506060820151610c706060850182610c96565b50505050565b80516040830190610c878482610993565b506020820151610c7060208501825b61098d81610dcb565b602081016104fd8284610984565b60408101610cbb8285610993565b6106966020830184610c96565b60408082528101610cd98185610a0a565b9050818103602083015261085a818461099c565b6020808252810161051681610ab6565b6020808252810161051681610aef565b6020808252810161051681610b35565b604081016104fd8284610c76565b602081016104fd8284610c96565b60405181810167ffffffffffffffff81118282101715610d5857600080fd5b604052919050565b600067ffffffffffffffff821115610d7757600080fd5b506020601f91909101601f19160190565b60200190565b5190565b90815260200190565b600061051682610dbf565b151590565b8061051981610e3c565b8061051981610e49565b6001600160a01b031690565b90565b600061051682610def565b600061051682610dab565b600061051682610db5565b600061051682610d9b565b82818337506000910152565b60005b83811015610e21578181015183820152602001610e09565b83811115610c705750506000910152565b601f01601f191690565b60098110610e4657fe5b50565b60028110610e4657fe5b610e5c81610d9b565b8114610e4657600080fd5b610e5c81610da6565b610e5c81610dcb56fea365627a7a723158205d4e257e3aa317fd1e3d666d3c8b7eea8780fb5e34dcf4719085dfeda8862dcb6c6578706572696d656e74616cf564736f6c63430005110040",
  "bytecodeSha1": "11959bf7f9f797183c368fe2a4929a03ed88d956",
  "compiler": {
    "evm_version": "istanbul",
    "optimizer": {
      "enabled": true,
      "runs": 200
    },
    "version": "0.5.17"
  },
  "contractName": "Flashloan",
  "language": "Solidity",
  "natspec": {
    "methods": {}
  },
  "opcodes": "PUSH1 0x80 PUSH1 0x40 MSTORE PUSH1 0x4 CALLDATASIZE LT PUSH2 0x29 JUMPI PUSH1 0x0 CALLDATALOAD PUSH1 0xE0 SHR DUP1 PUSH4 0x8B418713 EQ PUSH2 0x2B JUMPI DUP1 PUSH4 0xF4840123 EQ PUSH2 0x4B JUMPI JUMPDEST STOP JUMPDEST CALLVALUE DUP1 ISZERO PUSH2 0x37 JUMPI PUSH1 0x0 DUP1 REVERT JUMPDEST POP PUSH2 0x29 PUSH2 0x46 CALLDATASIZE PUSH1 0x4 PUSH2 0x8AF JUMP JUMPDEST PUSH2 0x6B JUMP JUMPDEST CALLVALUE DUP1 ISZERO PUSH2 0x57 JUMPI PUSH1 0x0 DUP1 REVERT JUMPDEST POP PUSH2 0x29 PUSH2 0x66 CALLDATASIZE PUSH1 0x4 PUSH2 0x862 JUMP JUMPDEST PUSH2 0x180 JUMP JUMPDEST PUSH2 0x73 PUSH2 0x69D JUMP JUMPDEST DUP2 DUP1 PUSH1 0x20 ADD SWAP1 MLOAD PUSH2 0x87 SWAP2 SWAP1 DUP2 ADD SWAP1 PUSH2 0x928 JUMP JUMPDEST SWAP1 POP PUSH1 0x0 DUP2 PUSH1 0x0 ADD MLOAD PUSH1 0x1 PUSH1 0x1 PUSH1 0xA0 SHL SUB AND PUSH4 0x70A08231 ADDRESS PUSH1 0x40 MLOAD DUP3 PUSH4 0xFFFFFFFF AND PUSH1 0xE0 SHL DUP2 MSTORE PUSH1 0x4 ADD PUSH2 0xBB SWAP2 SWAP1 PUSH2 0xC9F JUMP JUMPDEST PUSH1 0x20 PUSH1 0x40 MLOAD DUP1 DUP4 SUB DUP2 DUP7 DUP1 EXTCODESIZE ISZERO DUP1 ISZERO PUSH2 0xD3 JUMPI PUSH1 0x0 DUP1 REVERT JUMPDEST POP GAS STATICCALL ISZERO DUP1 ISZERO PUSH2 0xE7 JUMPI RETURNDATASIZE PUSH1 0x0 DUP1 RETURNDATACOPY RETURNDATASIZE PUSH1 0x0 REVERT JUMPDEST POP POP POP POP PUSH1 0x40 MLOAD RETURNDATASIZE PUSH1 0x1F NOT PUSH1 0x1F DUP3 ADD AND DUP3 ADD DUP1 PUSH1 0x40 MSTORE POP PUSH2 0x10B SWAP2 SWAP1 DUP2 ADD SWAP1 PUSH2 0x946 JUMP JUMPDEST SWAP1 POP DUP2 PUSH1 0x20 ADD MLOAD DUP2 LT ISZERO PUSH2 0x13A JUMPI PUSH1 0x40 MLOAD PUSH3 0x461BCD PUSH1 0xE5 SHL DUP2 MSTORE PUSH1 0x4 ADD PUSH2 0x131 SWAP1 PUSH2 0xCFD JUMP JUMPDEST PUSH1 0x40 MLOAD DUP1 SWAP2 SUB SWAP1 REVERT JUMPDEST DUP2 MLOAD PUSH1 0x20 DUP4 ADD MLOAD PUSH1 0x40 MLOAD PUSH32 0x134BDE118562A60DCF2D8C52965F586E25CF88A371592E44B78C4AA03BCBAC84 SWAP3 PUSH2 0x171 SWAP3 SWAP1 SWAP2 PUSH2 0xCAD JUMP JUMPDEST PUSH1 0x40 MLOAD DUP1 SWAP2 SUB SWAP1 LOG1 POP POP POP POP POP JUMP JUMPDEST DUP3 PUSH1 0x0 PUSH2 0x18D DUP3 DUP6 PUSH2 0x3B2 JUMP JUMPDEST SWAP1 POP PUSH1 0x0 PUSH2 0x19A DUP5 PUSH2 0x503 JUMP JUMPDEST PUSH1 0x40 MLOAD PUSH4 0x95EA7B3 PUSH1 0xE0 SHL DUP2 MSTORE SWAP1 SWAP2 POP PUSH1 0x1 PUSH1 0x1 PUSH1 0xA0 SHL SUB DUP7 AND SWAP1 PUSH4 0x95EA7B3 SWAP1 PUSH2 0x1CB SWAP1 DUP10 SWAP1 DUP6 SWAP1 PUSH1 0x4 ADD PUSH2 0xCAD JUMP JUMPDEST PUSH1 0x20 PUSH1 0x40 MLOAD DUP1 DUP4 SUB DUP2 PUSH1 0x0 DUP8 DUP1 EXTCODESIZE ISZERO DUP1 ISZERO PUSH2 0x1E5 JUMPI PUSH1 0x0 DUP1 REVERT JUMPDEST POP GAS CALL ISZERO DUP1 ISZERO PUSH2 0x1F9 JUMPI RETURNDATASIZE PUSH1 0x0 DUP1 RETURNDATACOPY RETURNDATASIZE PUSH1 0x0 REVERT JUMPDEST POP POP POP POP PUSH1 0x40 MLOAD RETURNDATASIZE PUSH1 0x1F NOT PUSH1 0x1F DUP3 ADD AND DUP3 ADD DUP1 PUSH1 0x40 MSTORE POP PUSH2 0x21D SWAP2 SWAP1 DUP2 ADD SWAP1 PUSH2 0x90A JUMP JUMPDEST POP PUSH1 0x40 DUP1 MLOAD PUSH1 0x3 DUP1 DUP3 MSTORE PUSH1 0x80 DUP3 ADD SWAP1 SWAP3 MSTORE PUSH1 0x60 SWAP2 DUP2 PUSH1 0x20 ADD JUMPDEST PUSH2 0x23E PUSH2 0x6B4 JUMP JUMPDEST DUP2 MSTORE PUSH1 0x20 ADD SWAP1 PUSH1 0x1 SWAP1 SUB SWAP1 DUP2 PUSH2 0x236 JUMPI SWAP1 POP POP SWAP1 POP PUSH2 0x25D DUP4 DUP7 PUSH2 0x51E JUMP JUMPDEST DUP2 PUSH1 0x0 DUP2 MLOAD DUP2 LT PUSH2 0x26A JUMPI INVALID JUMPDEST PUSH1 0x20 MUL PUSH1 0x20 ADD ADD DUP2 SWAP1 MSTORE POP PUSH2 0x2BA PUSH1 0x40 MLOAD DUP1 PUSH1 0x40 ADD PUSH1 0x40 MSTORE DUP1 DUP9 PUSH1 0x1 PUSH1 0x1 PUSH1 0xA0 SHL SUB AND DUP2 MSTORE PUSH1 0x20 ADD DUP5 DUP2 MSTORE POP PUSH1 0x40 MLOAD PUSH1 0x20 ADD PUSH2 0x2A6 SWAP2 SWAP1 PUSH2 0xD1D JUMP JUMPDEST PUSH1 0x40 MLOAD PUSH1 0x20 DUP2 DUP4 SUB SUB DUP2 MSTORE SWAP1 PUSH1 0x40 MSTORE PUSH2 0x5A8 JUMP JUMPDEST DUP2 PUSH1 0x1 DUP2 MLOAD DUP2 LT PUSH2 0x2C7 JUMPI INVALID JUMPDEST PUSH1 0x20 MUL PUSH1 0x20 ADD ADD DUP2 SWAP1 MSTORE POP PUSH2 0x2DC DUP4 DUP4 PUSH2 0x616 JUMP JUMPDEST DUP2 PUSH1 0x2 DUP2 MLOAD DUP2 LT PUSH2 0x2E9 JUMPI INVALID JUMPDEST PUSH1 0x20 SWAP1 DUP2 MUL SWAP2 SWAP1 SWAP2 ADD ADD MSTORE PUSH1 0x40 DUP1 MLOAD PUSH1 0x1 DUP1 DUP3 MSTORE DUP2 DUP4 ADD SWAP1 SWAP3 MSTORE PUSH1 0x60 SWAP2 DUP2 PUSH1 0x20 ADD JUMPDEST PUSH2 0x313 PUSH2 0x69D JUMP JUMPDEST DUP2 MSTORE PUSH1 0x20 ADD SWAP1 PUSH1 0x1 SWAP1 SUB SWAP1 DUP2 PUSH2 0x30B JUMPI SWAP1 POP POP SWAP1 POP PUSH2 0x330 PUSH2 0x651 JUMP JUMPDEST DUP2 PUSH1 0x0 DUP2 MLOAD DUP2 LT PUSH2 0x33D JUMPI INVALID JUMPDEST PUSH1 0x20 SWAP1 DUP2 MUL SWAP2 SWAP1 SWAP2 ADD ADD MSTORE PUSH1 0x40 MLOAD PUSH4 0xA67A6A45 PUSH1 0xE0 SHL DUP2 MSTORE PUSH1 0x1 PUSH1 0x1 PUSH1 0xA0 SHL SUB DUP7 AND SWAP1 PUSH4 0xA67A6A45 SWAP1 PUSH2 0x376 SWAP1 DUP5 SWAP1 DUP7 SWAP1 PUSH1 0x4 ADD PUSH2 0xCC8 JUMP JUMPDEST PUSH1 0x0 PUSH1 0x40 MLOAD DUP1 DUP4 SUB DUP2 PUSH1 0x0 DUP8 DUP1 EXTCODESIZE ISZERO DUP1 ISZERO PUSH2 0x390 JUMPI PUSH1 0x0 DUP1 REVERT JUMPDEST POP GAS CALL ISZERO DUP1 ISZERO PUSH2 0x3A4 JUMPI RETURNDATASIZE PUSH1 0x0 DUP1 RETURNDATACOPY RETURNDATASIZE PUSH1 0x0 REVERT JUMPDEST POP POP POP POP POP POP POP POP POP POP POP POP JUMP JUMPDEST PUSH1 0x0 DUP1 DUP4 SWAP1 POP PUSH1 0x0 DUP2 PUSH1 0x1 PUSH1 0x1 PUSH1 0xA0 SHL SUB AND PUSH4 0x295C39A5 PUSH1 0x40 MLOAD DUP2 PUSH4 0xFFFFFFFF AND PUSH1 0xE0 SHL DUP2 MSTORE PUSH1 0x4 ADD PUSH1 0x20 PUSH1 0x40 MLOAD DUP1 DUP4 SUB DUP2 DUP7 DUP1 EXTCODESIZE ISZERO DUP1 ISZERO PUSH2 0x3F3 JUMPI PUSH1 0x0 DUP1 REVERT JUMPDEST POP GAS STATICCALL ISZERO DUP1 ISZERO PUSH2 0x407 JUMPI RETURNDATASIZE PUSH1 0x0 DUP1 RETURNDATACOPY RETURNDATASIZE PUSH1 0x0 REVERT JUMPDEST POP POP POP POP PUSH1 0x40 MLOAD RETURNDATASIZE PUSH1 0x1F NOT PUSH1 0x1F DUP3 ADD AND DUP3 ADD DUP1 PUSH1 0x40 MSTORE POP PUSH2 0x42B SWAP2 SWAP1 DUP2 ADD SWAP1 PUSH2 0x946 JUMP JUMPDEST SWAP1 POP PUSH1 0x0 DUP1 JUMPDEST DUP3 DUP2 LT ISZERO PUSH2 0x4E4 JUMPI PUSH1 0x40 MLOAD PUSH4 0x62BD3E9 PUSH1 0xE0 SHL DUP2 MSTORE PUSH1 0x1 PUSH1 0x1 PUSH1 0xA0 SHL SUB DUP6 AND SWAP1 PUSH4 0x62BD3E9 SWAP1 PUSH2 0x465 SWAP1 DUP5 SWAP1 PUSH1 0x4 ADD PUSH2 0xD2B JUMP JUMPDEST PUSH1 0x20 PUSH1 0x40 MLOAD DUP1 DUP4 SUB DUP2 DUP7 DUP1 EXTCODESIZE ISZERO DUP1 ISZERO PUSH2 0x47D JUMPI PUSH1 0x0 DUP1 REVERT JUMPDEST POP GAS STATICCALL ISZERO DUP1 ISZERO PUSH2 0x491 JUMPI RETURNDATASIZE PUSH1 0x0 DUP1 RETURNDATACOPY RETURNDATASIZE PUSH1 0x0 REVERT JUMPDEST POP POP POP POP PUSH1 0x40 MLOAD RETURNDATASIZE PUSH1 0x1F NOT PUSH1 0x1F DUP3 ADD AND DUP3 ADD DUP1 PUSH1 0x40 MSTORE POP PUSH2 0x4B5 SWAP2 SWAP1 DUP2 ADD SWAP1 PUSH2 0x83C JUMP JUMPDEST SWAP2 POP DUP6 PUSH1 0x1 PUSH1 0x1 PUSH1 0xA0 SHL SUB AND DUP3 PUSH1 0x1 PUSH1 0x1 PUSH1 0xA0 SHL SUB AND EQ ISZERO PUSH2 0x4DC JUMPI SWAP4 POP PUSH2 0x4FD SWAP3 POP POP POP JUMP JUMPDEST PUSH1 0x1 ADD PUSH2 0x431 JUMP JUMPDEST POP PUSH1 0x40 MLOAD PUSH3 0x461BCD PUSH1 0xE5 SHL DUP2 MSTORE PUSH1 0x4 ADD PUSH2 0x131 SWAP1 PUSH2 0xD0D JUMP JUMPDEST SWAP3 SWAP2 POP POP JUMP JUMPDEST PUSH1 0x0 PUSH2 0x516 DUP3 PUSH1 0x2 PUSH4 0xFFFFFFFF PUSH2 0x671 AND JUMP JUMPDEST SWAP1 POP JUMPDEST SWAP2 SWAP1 POP JUMP JUMPDEST PUSH2 0x526 PUSH2 0x6B4 JUMP JUMPDEST PUSH1 0x40 DUP1 MLOAD PUSH2 0x100 DUP2 ADD DUP3 MSTORE PUSH1 0x1 DUP2 MSTORE PUSH1 0x0 PUSH1 0x20 DUP1 DUP4 ADD DUP3 SWAP1 MSTORE DUP4 MLOAD PUSH1 0x80 DUP2 ADD DUP6 MSTORE DUP3 DUP2 MSTORE SWAP3 SWAP4 DUP5 ADD SWAP3 SWAP2 SWAP1 DUP3 ADD SWAP1 JUMPDEST DUP2 MSTORE PUSH1 0x20 ADD PUSH1 0x0 DUP2 MSTORE PUSH1 0x20 ADD DUP6 DUP2 MSTORE POP DUP2 MSTORE PUSH1 0x20 ADD DUP5 DUP2 MSTORE PUSH1 0x20 ADD PUSH1 0x0 DUP2 MSTORE PUSH1 0x20 ADD ADDRESS PUSH1 0x1 PUSH1 0x1 PUSH1 0xA0 SHL SUB AND DUP2 MSTORE PUSH1 0x20 ADD PUSH1 0x0 DUP2 MSTORE PUSH1 0x20 ADD PUSH1 0x40 MLOAD DUP1 PUSH1 0x20 ADD PUSH1 0x40 MSTORE DUP1 PUSH1 0x0 DUP2 MSTORE POP DUP2 MSTORE POP SWAP1 POP SWAP3 SWAP2 POP POP JUMP JUMPDEST PUSH2 0x5B0 PUSH2 0x6B4 JUMP JUMPDEST PUSH1 0x40 DUP1 MLOAD PUSH2 0x100 DUP2 ADD DUP3 MSTORE PUSH1 0x8 DUP2 MSTORE PUSH1 0x0 PUSH1 0x20 DUP1 DUP4 ADD DUP3 SWAP1 MSTORE DUP4 MLOAD PUSH1 0x80 DUP2 ADD DUP6 MSTORE DUP3 DUP2 MSTORE SWAP3 SWAP4 DUP5 ADD SWAP3 SWAP2 SWAP1 DUP3 ADD SWAP1 DUP2 MSTORE PUSH1 0x20 ADD PUSH1 0x0 DUP2 MSTORE PUSH1 0x0 PUSH1 0x20 SWAP2 DUP3 ADD DUP2 SWAP1 MSTORE SWAP2 DUP4 MSTORE DUP3 ADD DUP2 SWAP1 MSTORE PUSH1 0x40 DUP3 ADD DUP2 SWAP1 MSTORE ADDRESS PUSH1 0x60 DUP4 ADD MSTORE PUSH1 0x80 DUP3 ADD MSTORE PUSH1 0xA0 ADD SWAP3 SWAP1 SWAP3 MSTORE POP SWAP1 JUMP JUMPDEST PUSH2 0x61E PUSH2 0x6B4 JUMP JUMPDEST PUSH1 0x40 DUP1 MLOAD PUSH2 0x100 DUP2 ADD DUP3 MSTORE PUSH1 0x0 DUP1 DUP3 MSTORE PUSH1 0x20 DUP1 DUP4 ADD DUP3 SWAP1 MSTORE DUP4 MLOAD PUSH1 0x80 DUP2 ADD DUP6 MSTORE PUSH1 0x1 DUP2 MSTORE SWAP3 SWAP4 DUP5 ADD SWAP3 SWAP2 SWAP1 DUP3 ADD SWAP1 PUSH2 0x555 JUMP JUMPDEST PUSH2 0x659 PUSH2 0x69D JUMP JUMPDEST POP PUSH1 0x40 DUP1 MLOAD DUP1 DUP3 ADD SWAP1 SWAP2 MSTORE ADDRESS DUP2 MSTORE PUSH1 0x1 PUSH1 0x20 DUP3 ADD MSTORE SWAP1 JUMP JUMPDEST PUSH1 0x0 DUP3 DUP3 ADD DUP4 DUP2 LT ISZERO PUSH2 0x696 JUMPI PUSH1 0x40 MLOAD PUSH3 0x461BCD PUSH1 0xE5 SHL DUP2 MSTORE PUSH1 0x4 ADD PUSH2 0x131 SWAP1 PUSH2 0xCED JUMP JUMPDEST SWAP4 SWAP3 POP POP POP JUMP JUMPDEST PUSH1 0x40 DUP1 MLOAD DUP1 DUP3 ADD SWAP1 SWAP2 MSTORE PUSH1 0x0 DUP1 DUP3 MSTORE PUSH1 0x20 DUP3 ADD MSTORE SWAP1 JUMP JUMPDEST PUSH1 0x40 DUP1 MLOAD PUSH2 0x100 DUP2 ADD DUP3 MSTORE PUSH1 0x0 DUP1 DUP3 MSTORE PUSH1 0x20 DUP3 ADD MSTORE SWAP1 DUP2 ADD PUSH2 0x6D4 PUSH2 0x706 JUMP JUMPDEST DUP2 MSTORE PUSH1 0x20 ADD PUSH1 0x0 DUP2 MSTORE PUSH1 0x20 ADD PUSH1 0x0 DUP2 MSTORE PUSH1 0x20 ADD PUSH1 0x0 PUSH1 0x1 PUSH1 0x1 PUSH1 0xA0 SHL SUB AND DUP2 MSTORE PUSH1 0x20 ADD PUSH1 0x0 DUP2 MSTORE PUSH1 0x20 ADD PUSH1 0x60 DUP2 MSTORE POP SWAP1 JUMP JUMPDEST PUSH1 0x40 DUP1 MLOAD PUSH1 0x80 DUP2 ADD SWAP1 SWAP2 MSTORE PUSH1 0x0 DUP1 DUP3 MSTORE PUSH1 0x20 DUP3 ADD SWAP1 DUP2 MSTORE PUSH1 0x20 ADD PUSH1 0x0 DUP2 MSTORE PUSH1 0x20 ADD PUSH1 0x0 DUP2 MSTORE POP SWAP1 JUMP JUMPDEST DUP1 CALLDATALOAD PUSH2 0x4FD DUP2 PUSH2 0xE53 JUMP JUMPDEST DUP1 MLOAD PUSH2 0x4FD DUP2 PUSH2 0xE53 JUMP JUMPDEST DUP1 MLOAD PUSH2 0x4FD DUP2 PUSH2 0xE67 JUMP JUMPDEST PUSH1 0x0 DUP3 PUSH1 0x1F DUP4 ADD SLT PUSH2 0x761 JUMPI PUSH1 0x0 DUP1 REVERT JUMPDEST DUP2 CALLDATALOAD PUSH2 0x774 PUSH2 0x76F DUP3 PUSH2 0xD60 JUMP JUMPDEST PUSH2 0xD39 JUMP JUMPDEST SWAP2 POP DUP1 DUP3 MSTORE PUSH1 0x20 DUP4 ADD PUSH1 0x20 DUP4 ADD DUP6 DUP4 DUP4 ADD GT ISZERO PUSH2 0x790 JUMPI PUSH1 0x0 DUP1 REVERT JUMPDEST PUSH2 0x79B DUP4 DUP3 DUP5 PUSH2 0xDFA JUMP JUMPDEST POP POP POP SWAP3 SWAP2 POP POP JUMP JUMPDEST PUSH1 0x0 PUSH1 0x40 DUP3 DUP5 SUB SLT ISZERO PUSH2 0x7B6 JUMPI PUSH1 0x0 DUP1 REVERT JUMPDEST PUSH2 0x7C0 PUSH1 0x40 PUSH2 0xD39 JUMP JUMPDEST SWAP1 POP PUSH1 0x0 PUSH2 0x7CE DUP5 DUP5 PUSH2 0x72F JUMP JUMPDEST DUP3 MSTORE POP PUSH1 0x20 PUSH2 0x7DF DUP5 DUP5 DUP4 ADD PUSH2 0x826 JUMP JUMPDEST PUSH1 0x20 DUP4 ADD MSTORE POP SWAP3 SWAP2 POP POP JUMP JUMPDEST PUSH1 0x0 PUSH1 0x40 DUP3 DUP5 SUB SLT ISZERO PUSH2 0x7FD JUMPI PUSH1 0x0 DUP1 REVERT JUMPDEST PUSH2 0x807 PUSH1 0x40 PUSH2 0xD39 JUMP JUMPDEST SWAP1 POP PUSH1 0x0 PUSH2 0x815 DUP5 DUP5 PUSH2 0x73A JUMP JUMPDEST DUP3 MSTORE POP PUSH1 0x20 PUSH2 0x7DF DUP5 DUP5 DUP4 ADD PUSH2 0x831 JUMP JUMPDEST DUP1 CALLDATALOAD PUSH2 0x4FD DUP2 PUSH2 0xE70 JUMP JUMPDEST DUP1 MLOAD PUSH2 0x4FD DUP2 PUSH2 0xE70 JUMP JUMPDEST PUSH1 0x0 PUSH1 0x20 DUP3 DUP5 SUB SLT ISZERO PUSH2 0x84E JUMPI PUSH1 0x0 DUP1 REVERT JUMPDEST PUSH1 0x0 PUSH2 0x85A DUP5 DUP5 PUSH2 0x73A JUMP JUMPDEST SWAP5 SWAP4 POP POP POP POP JUMP JUMPDEST PUSH1 0x0 DUP1 PUSH1 0x0 PUSH1 0x60 DUP5 DUP7 SUB SLT ISZERO PUSH2 0x877 JUMPI PUSH1 0x0 DUP1 REVERT JUMPDEST PUSH1 0x0 PUSH2 0x883 DUP7 DUP7 PUSH2 0x72F JUMP JUMPDEST SWAP4 POP POP PUSH1 0x20 PUSH2 0x894 DUP7 DUP3 DUP8 ADD PUSH2 0x72F JUMP JUMPDEST SWAP3 POP POP PUSH1 0x40 PUSH2 0x8A5 DUP7 DUP3 DUP8 ADD PUSH2 0x826 JUMP JUMPDEST SWAP2 POP POP SWAP3 POP SWAP3 POP SWAP3 JUMP JUMPDEST PUSH1 0x0 DUP1 PUSH1 0x0 PUSH1 0x80 DUP5 DUP7 SUB SLT ISZERO PUSH2 0x8C4 JUMPI PUSH1 0x0 DUP1 REVERT JUMPDEST PUSH1 0x0 PUSH2 0x8D0 DUP7 DUP7 PUSH2 0x72F JUMP JUMPDEST SWAP4 POP POP PUSH1 0x20 PUSH2 0x8E1 DUP7 DUP3 DUP8 ADD PUSH2 0x7A4 JUMP JUMPDEST SWAP3 POP POP PUSH1 0x60 DUP5 ADD CALLDATALOAD PUSH8 0xFFFFFFFFFFFFFFFF DUP2 GT ISZERO PUSH2 0x8FE JUMPI PUSH1 0x0 DUP1 REVERT JUMPDEST PUSH2 0x8A5 DUP7 DUP3 DUP8 ADD PUSH2 0x750 JUMP JUMPDEST PUSH1 0x0 PUSH1 0x20 DUP3 DUP5 SUB SLT ISZERO PUSH2 0x91C JUMPI PUSH1 0x0 DUP1 REVERT JUMPDEST PUSH1 0x0 PUSH2 0x85A DUP5 DUP5 PUSH2 0x745 JUMP JUMPDEST PUSH1 0x0 PUSH1 0x40 DUP3 DUP5 SUB SLT ISZERO PUSH2 0x93A JUMPI PUSH1 0x0 DUP1 REVERT JUMPDEST PUSH1 0x0 PUSH2 0x85A DUP5 DUP5 PUSH2 0x7EB JUMP JUMPDEST PUSH1 0x0 PUSH1 0x20 DUP3 DUP5 SUB SLT ISZERO PUSH2 0x958 JUMPI PUSH1 0x0 DUP1 REVERT JUMPDEST PUSH1 0x0 PUSH2 0x85A DUP5 DUP5 PUSH2 0x831 JUMP JUMPDEST PUSH1 0x0 PUSH2 0x696 DUP4 DUP4 PUSH2 0xB7B JUMP JUMPDEST PUSH1 0x0 PUSH2 0x97C DUP4 DUP4 PUSH2 0xC76 JUMP JUMPDEST POP POP PUSH1 0x40 ADD SWAP1 JUMP JUMPDEST PUSH2 0x98D DUP2 PUSH2 0xDCE JUMP JUMPDEST DUP3 MSTORE POP POP JUMP JUMPDEST PUSH2 0x98D DUP2 PUSH2 0xD9B JUMP JUMPDEST PUSH1 0x0 PUSH2 0x9A7 DUP3 PUSH2 0xD8E JUMP JUMPDEST PUSH2 0x9B1 DUP2 DUP6 PUSH2 0xD92 JUMP JUMPDEST SWAP4 POP DUP4 PUSH1 0x20 DUP3 MUL DUP6 ADD PUSH2 0x9C3 DUP6 PUSH2 0xD88 JUMP JUMPDEST DUP1 PUSH1 0x0 JUMPDEST DUP6 DUP2 LT ISZERO PUSH2 0x9FD JUMPI DUP5 DUP5 SUB DUP10 MSTORE DUP2 MLOAD PUSH2 0x9E0 DUP6 DUP3 PUSH2 0x964 JUMP JUMPDEST SWAP5 POP PUSH2 0x9EB DUP4 PUSH2 0xD88 JUMP JUMPDEST PUSH1 0x20 SWAP11 SWAP1 SWAP11 ADD SWAP10 SWAP3 POP POP PUSH1 0x1 ADD PUSH2 0x9C7 JUMP JUMPDEST POP SWAP2 SWAP8 SWAP7 POP POP POP POP POP POP POP JUMP JUMPDEST PUSH1 0x0 PUSH2 0xA15 DUP3 PUSH2 0xD8E JUMP JUMPDEST PUSH2 0xA1F DUP2 DUP6 PUSH2 0xD92 JUMP JUMPDEST SWAP4 POP PUSH2 0xA2A DUP4 PUSH2 0xD88 JUMP JUMPDEST DUP1 PUSH1 0x0 JUMPDEST DUP4 DUP2 LT ISZERO PUSH2 0xA58 JUMPI DUP2 MLOAD PUSH2 0xA42 DUP9 DUP3 PUSH2 0x970 JUMP JUMPDEST SWAP8 POP PUSH2 0xA4D DUP4 PUSH2 0xD88 JUMP JUMPDEST SWAP3 POP POP PUSH1 0x1 ADD PUSH2 0xA2E JUMP JUMPDEST POP SWAP5 SWAP6 SWAP5 POP POP POP POP POP JUMP JUMPDEST PUSH2 0x98D DUP2 PUSH2 0xDA6 JUMP JUMPDEST PUSH1 0x0 PUSH2 0xA77 DUP3 PUSH2 0xD8E JUMP JUMPDEST PUSH2 0xA81 DUP2 DUP6 PUSH2 0xD92 JUMP JUMPDEST SWAP4 POP PUSH2 0xA91 DUP2 DUP6 PUSH1 0x20 DUP7 ADD PUSH2 0xE06 JUMP JUMPDEST PUSH2 0xA9A DUP2 PUSH2 0xE32 JUMP JUMPDEST SWAP1 SWAP4 ADD SWAP4 SWAP3 POP POP POP JUMP JUMPDEST PUSH2 0x98D DUP2 PUSH2 0xDD9 JUMP JUMPDEST PUSH2 0x98D DUP2 PUSH2 0xDE4 JUMP JUMPDEST PUSH1 0x0 PUSH2 0xAC3 PUSH1 0x1B DUP4 PUSH2 0xD92 JUMP JUMPDEST PUSH32 0x536166654D6174683A206164646974696F6E206F766572666C6F770000000000 DUP2 MSTORE PUSH1 0x20 ADD SWAP3 SWAP2 POP POP JUMP JUMPDEST PUSH1 0x0 PUSH2 0xAFC PUSH1 0x24 DUP4 PUSH2 0xD92 JUMP JUMPDEST PUSH32 0x4E6F7420656E6F7567682066756E647320746F2072657061792064796478206C DUP2 MSTORE PUSH4 0x6F616E21 PUSH1 0xE0 SHL PUSH1 0x20 DUP3 ADD MSTORE PUSH1 0x40 ADD SWAP3 SWAP2 POP POP JUMP JUMPDEST PUSH1 0x0 PUSH2 0xB42 PUSH1 0x24 DUP4 PUSH2 0xD92 JUMP JUMPDEST PUSH32 0x4E6F206D61726B6574496420666F756E6420666F722070726F76696465642074 DUP2 MSTORE PUSH4 0x37B5B2B7 PUSH1 0xE1 SHL PUSH1 0x20 DUP3 ADD MSTORE PUSH1 0x40 ADD SWAP3 SWAP2 POP POP JUMP JUMPDEST DUP1 MLOAD PUSH1 0x0 SWAP1 PUSH2 0x160 DUP5 ADD SWAP1 PUSH2 0xB90 DUP6 DUP3 PUSH2 0xAA4 JUMP JUMPDEST POP PUSH1 0x20 DUP4 ADD MLOAD PUSH2 0xBA3 PUSH1 0x20 DUP7 ADD DUP3 PUSH2 0xC96 JUMP JUMPDEST POP PUSH1 0x40 DUP4 ADD MLOAD PUSH2 0xBB6 PUSH1 0x40 DUP7 ADD DUP3 PUSH2 0xC26 JUMP JUMPDEST POP PUSH1 0x60 DUP4 ADD MLOAD PUSH2 0xBC9 PUSH1 0xC0 DUP7 ADD DUP3 PUSH2 0xC96 JUMP JUMPDEST POP PUSH1 0x80 DUP4 ADD MLOAD PUSH2 0xBDC PUSH1 0xE0 DUP7 ADD DUP3 PUSH2 0xC96 JUMP JUMPDEST POP PUSH1 0xA0 DUP4 ADD MLOAD PUSH2 0xBF0 PUSH2 0x100 DUP7 ADD DUP3 PUSH2 0x993 JUMP JUMPDEST POP PUSH1 0xC0 DUP4 ADD MLOAD PUSH2 0xC04 PUSH2 0x120 DUP7 ADD DUP3 PUSH2 0xC96 JUMP JUMPDEST POP PUSH1 0xE0 DUP4 ADD MLOAD DUP5 DUP3 SUB PUSH2 0x140 DUP7 ADD MSTORE PUSH2 0xC1D DUP3 DUP3 PUSH2 0xA6C JUMP JUMPDEST SWAP6 SWAP5 POP POP POP POP POP JUMP JUMPDEST DUP1 MLOAD PUSH1 0x80 DUP4 ADD SWAP1 PUSH2 0xC37 DUP5 DUP3 PUSH2 0xA63 JUMP JUMPDEST POP PUSH1 0x20 DUP3 ADD MLOAD PUSH2 0xC4A PUSH1 0x20 DUP6 ADD DUP3 PUSH2 0xAAD JUMP JUMPDEST POP PUSH1 0x40 DUP3 ADD MLOAD PUSH2 0xC5D PUSH1 0x40 DUP6 ADD DUP3 PUSH2 0xAAD JUMP JUMPDEST POP PUSH1 0x60 DUP3 ADD MLOAD PUSH2 0xC70 PUSH1 0x60 DUP6 ADD DUP3 PUSH2 0xC96 JUMP JUMPDEST POP POP POP POP JUMP JUMPDEST DUP1 MLOAD PUSH1 0x40 DUP4 ADD SWAP1 PUSH2 0xC87 DUP5 DUP3 PUSH2 0x993 JUMP JUMPDEST POP PUSH1 0x20 DUP3 ADD MLOAD PUSH2 0xC70 PUSH1 0x20 DUP6 ADD DUP3 JUMPDEST PUSH2 0x98D DUP2 PUSH2 0xDCB JUMP JUMPDEST PUSH1 0x20 DUP2 ADD PUSH2 0x4FD DUP3 DUP5 PUSH2 0x984 JUMP JUMPDEST PUSH1 0x40 DUP2 ADD PUSH2 0xCBB DUP3 DUP6 PUSH2 0x993 JUMP JUMPDEST PUSH2 0x696 PUSH1 0x20 DUP4 ADD DUP5 PUSH2 0xC96 JUMP JUMPDEST PUSH1 0x40 DUP1 DUP3 MSTORE DUP2 ADD PUSH2 0xCD9 DUP2 DUP6 PUSH2 0xA0A JUMP JUMPDEST SWAP1 POP DUP2 DUP2 SUB PUSH1 0x20 DUP4 ADD MSTORE PUSH2 0x85A DUP2 DUP5 PUSH2 0x99C JUMP JUMPDEST PUSH1 0x20 DUP1 DUP3 MSTORE DUP2 ADD PUSH2 0x516 DUP2 PUSH2 0xAB6 JUMP JUMPDEST PUSH1 0x20 DUP1 DUP3 MSTORE DUP2 ADD PUSH2 0x516 DUP2 PUSH2 0xAEF JUMP JUMPDEST PUSH1 0x20 DUP1 DUP3 MSTORE DUP2 ADD PUSH2 0x516 DUP2 PUSH2 0xB35 JUMP JUMPDEST PUSH1 0x40 DUP2 ADD PUSH2 0x4FD DUP3 DUP5 PUSH2 0xC76 JUMP JUMPDEST PUSH1 0x20 DUP2 ADD PUSH2 0x4FD DUP3 DUP5 PUSH2 0xC96 JUMP JUMPDEST PUSH1 0x40 MLOAD DUP2 DUP2 ADD PUSH8 0xFFFFFFFFFFFFFFFF DUP2 GT DUP3 DUP3 LT OR ISZERO PUSH2 0xD58 JUMPI PUSH1 0x0 DUP1 REVERT JUMPDEST PUSH1 0x40 MSTORE SWAP2 SWAP1 POP JUMP JUMPDEST PUSH1 0x0 PUSH8 0xFFFFFFFFFFFFFFFF DUP3 GT ISZERO PUSH2 0xD77 JUMPI PUSH1 0x0 DUP1 REVERT JUMPDEST POP PUSH1 0x20 PUSH1 0x1F SWAP2 SWAP1 SWAP2 ADD PUSH1 0x1F NOT AND ADD SWAP1 JUMP JUMPDEST PUSH1 0x20 ADD SWAP1 JUMP JUMPDEST MLOAD SWAP1 JUMP JUMPDEST SWAP1 DUP2 MSTORE PUSH1 0x20 ADD SWAP1 JUMP JUMPDEST PUSH1 0x0 PUSH2 0x516 DUP3 PUSH2 0xDBF JUMP JUMPDEST ISZERO ISZERO SWAP1 JUMP JUMPDEST DUP1 PUSH2 0x519 DUP2 PUSH2 0xE3C JUMP JUMPDEST DUP1 PUSH2 0x519 DUP2 PUSH2 0xE49 JUMP JUMPDEST PUSH1 0x1 PUSH1 0x1 PUSH1 0xA0 SHL SUB AND SWAP1 JUMP JUMPDEST SWAP1 JUMP JUMPDEST PUSH1 0x0 PUSH2 0x516 DUP3 PUSH2 0xDEF JUMP JUMPDEST PUSH1 0x0 PUSH2 0x516 DUP3 PUSH2 0xDAB JUMP JUMPDEST PUSH1 0x0 PUSH2 0x516 DUP3 PUSH2 0xDB5 JUMP JUMPDEST PUSH1 0x0 PUSH2 0x516 DUP3 PUSH2 0xD9B JUMP JUMPDEST DUP3 DUP2 DUP4 CALLDATACOPY POP PUSH1 0x0 SWAP2 ADD MSTORE JUMP JUMPDEST PUSH1 0x0 JUMPDEST DUP4 DUP2 LT ISZERO PUSH2 0xE21 JUMPI DUP2 DUP2 ADD MLOAD DUP4 DUP3 ADD MSTORE PUSH1 0x20 ADD PUSH2 0xE09 JUMP JUMPDEST DUP4 DUP2 GT ISZERO PUSH2 0xC70 JUMPI POP POP PUSH1 0x0 SWAP2 ADD MSTORE JUMP JUMPDEST PUSH1 0x1F ADD PUSH1 0x1F NOT AND SWAP1 JUMP JUMPDEST PUSH1 0x9 DUP2 LT PUSH2 0xE46 JUMPI INVALID JUMPDEST POP JUMP JUMPDEST PUSH1 0x2 DUP2 LT PUSH2 0xE46 JUMPI INVALID JUMPDEST PUSH2 0xE5C DUP2 PUSH2 0xD9B JUMP JUMPDEST DUP2 EQ PUSH2 0xE46 JUMPI PUSH1 0x0 DUP1 REVERT JUMPDEST PUSH2 0xE5C DUP2 PUSH2 0xDA6 JUMP JUMPDEST PUSH2 0xE5C DUP2 PUSH2 0xDCB JUMP INVALID LOG3 PUSH6 0x627A7A723158 KECCAK256 0x5D 0x4E 0x25 PUSH31 0x3AA317FD1E3D666D3C8B7EEA8780FB5E34DCF4719085DFEDA8862DCB6C6578 PUSH17 0x6572696D656E74616CF564736F6C634300 SDIV GT STOP BLOCKHASH ",
  "sha1": "69e9368a01c2a9f294b071cdc6df8e733b03be3b",
  "source": "pragma solidity ^0.5.0;\npragma experimental ABIEncoderV2;\n\nimport \"../node_modules/@studydefi/money-legos/dydx/contracts/DydxFlashloanBase.sol\";\nimport \"../node_modules/@studydefi/money-legos/dydx/contracts/ICallee.sol\";\n\nimport \"../node_modules/@openzeppelin/contracts/token/ERC20/IERC20.sol\";\n\ncontract Flashloan is ICallee, DydxFlashloanBase {\n    struct MyCustomData {\n        address token;\n        uint256 repayAmount;\n    }\n\n    event FlashLoan(\n        address token,\n        uint256 repayAmount\n    );\n\n    // This is the function that will be called postLoan\n    // i.e. Encode the logic to handle your flashloaned funds here\n    function callFunction(\n        address sender,\n        Account.Info memory account,\n        bytes memory data\n    ) public {\n        MyCustomData memory mcd = abi.decode(data, (MyCustomData));\n        uint256 balOfLoanedToken = IERC20(mcd.token).balanceOf(address(this));\n\n        // Note that you can ignore the line below\n        // if your dydx account (this contract in this case)\n        // has deposited at least ~2 Wei of assets into the account\n        // to balance out the collaterization ratio\n        require(\n            balOfLoanedToken >= mcd.repayAmount,\n            \"Not enough funds to repay dydx loan!\"\n        );\n\n        // TODO: Encode your logic here\n        // E.g. arbitrage, liquidate accounts, etc\n        // revert(\"Hello, you haven't encoded your logic\");\n        emit FlashLoan(mcd.token, mcd.repayAmount);\n    }\n\n    function initiateFlashLoan(address _solo, address _token, uint256 _amount)\n        external\n    {\n        ISoloMargin solo = ISoloMargin(_solo);\n\n        // Get marketId from token address\n        uint256 marketId = _getMarketIdFromTokenAddress(_solo, _token);\n\n        // Calculate repay amount (_amount + (2 wei))\n        // Approve transfer from\n        uint256 repayAmount = _getRepaymentAmountInternal(_amount);\n        IERC20(_token).approve(_solo, repayAmount);\n\n        // 1. Withdraw $\n        // 2. Call callFunction(...)\n        // 3. Deposit back $\n        Actions.ActionArgs[] memory operations = new Actions.ActionArgs[](3);\n\n        operations[0] = _getWithdrawAction(marketId, _amount);\n        operations[1] = _getCallAction(\n            // Encode MyCustomData for callFunction\n            abi.encode(MyCustomData({token: _token, repayAmount: repayAmount}))\n        );\n        operations[2] = _getDepositAction(marketId, repayAmount);\n\n        Account.Info[] memory accountInfos = new Account.Info[](1);\n        accountInfos[0] = _getAccountInfo();\n\n        solo.operate(accountInfos, operations);\n    }\n\n    function() external payable {}\n}\n\n",
  "sourcePath": "contracts/Flashloan.sol",
  "type": "contract"
}